{
  "contractName": "Ballot",
  "abi": [
    {
      "constant": true,
      "inputs": [
        {
          "name": "",
          "type": "uint256"
        }
      ],
      "name": "proposals",
      "outputs": [
        {
          "name": "name",
          "type": "bytes32"
        },
        {
          "name": "voteCount",
          "type": "uint256"
        }
      ],
      "payable": false,
      "stateMutability": "view",
      "type": "function"
    },
    {
      "constant": true,
      "inputs": [],
      "name": "chairperson",
      "outputs": [
        {
          "name": "",
          "type": "address"
        }
      ],
      "payable": false,
      "stateMutability": "view",
      "type": "function"
    },
    {
      "constant": true,
      "inputs": [
        {
          "name": "",
          "type": "address"
        }
      ],
      "name": "voters",
      "outputs": [
        {
          "name": "weight",
          "type": "uint256"
        },
        {
          "name": "voted",
          "type": "bool"
        },
        {
          "name": "vote",
          "type": "uint256"
        }
      ],
      "payable": false,
      "stateMutability": "view",
      "type": "function"
    },
    {
      "inputs": [
        {
          "name": "proposalNames",
          "type": "bytes32[]"
        }
      ],
      "payable": false,
      "stateMutability": "nonpayable",
      "type": "constructor"
    },
    {
      "constant": false,
      "inputs": [
        {
          "name": "voter",
          "type": "address"
        }
      ],
      "name": "giveRightToVote",
      "outputs": [],
      "payable": false,
      "stateMutability": "nonpayable",
      "type": "function"
    },
    {
      "constant": false,
      "inputs": [
        {
          "name": "proposal",
          "type": "uint256"
        }
      ],
      "name": "vote",
      "outputs": [],
      "payable": false,
      "stateMutability": "nonpayable",
      "type": "function"
    },
    {
      "constant": true,
      "inputs": [],
      "name": "winningProposal",
      "outputs": [
        {
          "name": "winningProposal_",
          "type": "uint256"
        }
      ],
      "payable": false,
      "stateMutability": "view",
      "type": "function"
    },
    {
      "constant": true,
      "inputs": [],
      "name": "winnerName",
      "outputs": [
        {
          "name": "winnerName_",
          "type": "bytes32"
        }
      ],
      "payable": false,
      "stateMutability": "view",
      "type": "function"
    },
    {
      "constant": true,
      "inputs": [],
      "name": "getProposals",
      "outputs": [
        {
          "name": "proposals_",
          "type": "bytes32[]"
        }
      ],
      "payable": false,
      "stateMutability": "view",
      "type": "function"
    }
  ],
  "bytecode": "0x608060405234801561001057600080fd5b506040516107b23803806107b2833981016040908152815160008054600160a060020a0319163317808255600160a060020a031681526001602081905292812092909255909101905b81518110156100bc5760026040805190810160405280848481518110151561007d57fe5b60209081029091018101518252600091810182905283546001818101865594835291819020835160029093020191825591909101519082015501610059565b50506106e5806100cd6000396000f30060806040526004361061008d5763ffffffff7c01000000000000000000000000000000000000000000000000000000006000350416630121b93f8114610092578063013cf08b146100ac5780632e4176cf146100dd578063609ff1bd1461011b57806362564c48146101425780639e7b8d61146101a7578063a3ec138d146101d5578063e2ba53f014610221575b600080fd5b34801561009e57600080fd5b506100aa600435610236565b005b3480156100b857600080fd5b506100c4600435610302565b6040805192835260208301919091528051918290030190f35b3480156100e957600080fd5b506100f261032e565b6040805173ffffffffffffffffffffffffffffffffffffffff9092168252519081900360200190f35b34801561012757600080fd5b5061013061034a565b60408051918252519081900360200190f35b34801561014e57600080fd5b506101576103b4565b60408051602080825283518183015283519192839290830191858101910280838360005b8381101561019357818101518382015260200161017b565b505050509050019250505060405180910390f35b3480156101b357600080fd5b506100aa73ffffffffffffffffffffffffffffffffffffffff60043516610440565b3480156101e157600080fd5b5061020373ffffffffffffffffffffffffffffffffffffffff60043516610666565b60408051938452911515602084015282820152519081900360600190f35b34801561022d57600080fd5b5061013061068c565b3360009081526001602081905260409091209081015460ff16156102bb57604080517f08c379a000000000000000000000000000000000000000000000000000000000815260206004820152600e60248201527f416c726561647920766f7465642e000000000000000000000000000000000000604482015290519081900360640190fd5b6001818101805460ff19169091179055600280820183905581548154909190849081106102e457fe5b60009182526020909120600160029092020101805490910190555050565b600280548290811061031057fe5b60009182526020909120600290910201805460019091015490915082565b60005473ffffffffffffffffffffffffffffffffffffffff1681565b600080805b6002548110156103af578160028281548110151561036957fe5b90600052602060002090600202016001015411156103a757600280548290811061038f57fe5b90600052602060002090600202016001015491508092505b60010161034f565b505090565b60608060006002805490506040519080825280602002602001820160405280156103e8578160200160208202803883390190505b509150600090505b60025481101561043a57600280548290811061040857fe5b906000526020600020906002020160000154828281518110151561042857fe5b602090810290910101526001016103f0565b50919050565b60005473ffffffffffffffffffffffffffffffffffffffff1633146104ec57604080517f08c379a000000000000000000000000000000000000000000000000000000000815260206004820152602860248201527f4f6e6c79206368616972706572736f6e2063616e20676976652072696768742060448201527f746f20766f74652e000000000000000000000000000000000000000000000000606482015290519081900360840190fd5b73ffffffffffffffffffffffffffffffffffffffff81166000908152600160208190526040909120015460ff161561058557604080517f08c379a000000000000000000000000000000000000000000000000000000000815260206004820152601860248201527f54686520766f74657220616c726561647920766f7465642e0000000000000000604482015290519081900360640190fd5b73ffffffffffffffffffffffffffffffffffffffff81166000908152600160205260409020541561063c57604080517f08c379a0000000000000000000000000000000000000000000000000000000008152602060048201526024808201527f54686520766f74657220616c726561647920676f7420766f74696e672072696760448201527f6874732e00000000000000000000000000000000000000000000000000000000606482015290519081900360840190fd5b73ffffffffffffffffffffffffffffffffffffffff16600090815260016020819052604090912055565b600160208190526000918252604090912080549181015460029091015460ff9091169083565b6000600261069861034a565b815481106106a257fe5b9060005260206000209060020201600001549050905600a165627a7a72305820fce5710b09befa465e5ed862993146d1e346ffb7415efd3d9ebebfcb972e168f0029",
  "source": "pragma solidity ^0.4.24;\n\n/// @title Voting for event proposals \ncontract Ballot {\n    // This declares a new complex type which will be used \n    // for variables later. It will represent a single voter.\n    struct Voter {\n        uint weight; // weight is accumulated by delegation\n        bool voted;  // if true, that person already voted\n        uint vote;   // index of the voted proposal\n    }\n\n    // This is a type for a single proposal.\n    struct Proposal {\n        bytes32 name;   // short name (up to 32 bytes)\n        uint voteCount; // number of accumulated votes\n    }\n\n    address public chairperson;\n\n    // This declares a state variable that\n    // stores a `Voter` struct for each possible address.\n    mapping(address => Voter) public voters;\n\n    // A dynamically-sized array of `Proposal` structs.\n    Proposal[] public proposals;\n\n    /// Create a new ballot to choose one of `proposalNames`.\n    constructor(bytes32[] proposalNames) public {\n        chairperson = msg.sender;\n        voters[chairperson].weight = 1;\n\n        // For each of the provided proposal names,\n        // create a new proposal object and add it\n        // to the end of the array.\n        for (uint i = 0; i < proposalNames.length; i++) {\n            // `Proposal({...})` creates a temporary\n            // Proposal object and `proposals.push(...)`\n            // appends it to the end of `proposals`.\n            proposals.push(Proposal({\n                name: proposalNames[i],\n                voteCount: 0\n            }));\n        }\n    }\n\n    // Give `voter` the right to vote on this ballot. \n    // May only be called by `chairperson`.\n    function giveRightToVote(address voter) public {\n        // If the argument of `require` evaluates to `false`, \n        // it terminates and reverts all changes to the state and to\n        // Ether balances. It is often a good idea to use this if \n        // functions are called incorrectly.\n        require(\n            msg.sender == chairperson,\n            \"Only chairperson can give right to vote.\"\n        );\n        require(\n            !voters[voter].voted,\n            \"The voter already voted.\"\n        );\n        require(\n            voters[voter].weight == 0, \n            \"The voter already got voting rights.\"\n        );\n        voters[voter].weight = 1;\n    }\n\n    /// Give your vote to proposal `proposals[proposal].name`.\n    function vote(uint proposal) public {\n        Voter storage sender = voters[msg.sender];\n        require(!sender.voted, \"Already voted.\");\n        sender.voted = true;\n        sender.vote = proposal;\n\n        // If `proposal` is out of the range of the array,\n        // this will throw automatically and revert all\n        // changes.\n        proposals[proposal].voteCount += sender.weight;\n    }\n\n    /// @dev Computes the winning proposal taking all\n    /// previous votes into account.\n    function winningProposal() public view\n            returns (uint winningProposal_)\n    {\n        uint winningVoteCount = 0;\n        for (uint p = 0; p < proposals.length; p++) {\n            if (proposals[p].voteCount > winningVoteCount) {\n                winningVoteCount = proposals[p].voteCount;\n                winningProposal_ = p;\n            }\n        }\n    }\n\n    // Calls winningProposal() function to get the index\n    // of the winner contained in the proposals array and then\n    // returns the name of the winner\n    function winnerName() public view\n            returns (bytes32 winnerName_)\n    {\n        winnerName_ = proposals[winningProposal()].name;\n    }\n\n    // Return list of proposals and votes (expirimental)\n    function getProposals() public view\n            returns (bytes32[] proposals_)\n    {   \n        bytes32[] memory proposalNames = new bytes32[](proposals.length);\n        \n        for (uint i = 0; i < proposals.length; i++) {\n            proposalNames[i] = proposals[i].name;\n        }\n        \n        return proposals_ = proposalNames;\n    }\n}",
  "sourcePath": "/home/hyperledger/gitrepos/oraclejet-truffle-box/contracts/Ballot.sol",
  "compiler": {
    "name": "solc",
    "version": "0.4.24+commit.e67f0147.Emscripten.clang"
  },
  "schemaVersion": "2.0.1",
  "updatedAt": "2018-10-23T14:46:02.385Z"
}